{
    "_format": "hh-sol-artifact-1",
    "contractName": "TrapDart",
    "sourceName": "contracts/TrapDart.sol",
    "abi": [
        {
            "inputs": [
                {
                    "internalType": "address",
                    "name": "founder",
                    "type": "address"
                },
                {
                    "internalType": "address",
                    "name": "development",
                    "type": "address"
                },
                {
                    "internalType": "address",
                    "name": "treasury",
                    "type": "address"
                },
                {
                    "internalType": "address",
                    "name": "_crowdsale",
                    "type": "address"
                }
            ],
            "stateMutability": "nonpayable",
            "type": "constructor"
        },
        {
            "anonymous": false,
            "inputs": [
                {
                    "indexed": true,
                    "internalType": "address",
                    "name": "owner",
                    "type": "address"
                },
                {
                    "indexed": true,
                    "internalType": "address",
                    "name": "spender",
                    "type": "address"
                },
                {
                    "indexed": false,
                    "internalType": "uint256",
                    "name": "value",
                    "type": "uint256"
                }
            ],
            "name": "Approval",
            "type": "event"
        },
        {
            "anonymous": false,
            "inputs": [
                {
                    "indexed": true,
                    "internalType": "address",
                    "name": "previousOwner",
                    "type": "address"
                },
                {
                    "indexed": true,
                    "internalType": "address",
                    "name": "newOwner",
                    "type": "address"
                }
            ],
            "name": "OwnershipTransferred",
            "type": "event"
        },
        {
            "anonymous": false,
            "inputs": [
                {
                    "indexed": true,
                    "internalType": "address",
                    "name": "from",
                    "type": "address"
                },
                {
                    "indexed": true,
                    "internalType": "address",
                    "name": "to",
                    "type": "address"
                },
                {
                    "indexed": false,
                    "internalType": "uint256",
                    "name": "value",
                    "type": "uint256"
                }
            ],
            "name": "Transfer",
            "type": "event"
        },
        {
            "inputs": [
                {
                    "internalType": "address",
                    "name": "owner",
                    "type": "address"
                },
                {
                    "internalType": "address",
                    "name": "spender",
                    "type": "address"
                }
            ],
            "name": "allowance",
            "outputs": [
                {
                    "internalType": "uint256",
                    "name": "",
                    "type": "uint256"
                }
            ],
            "stateMutability": "view",
            "type": "function"
        },
        {
            "inputs": [
                {
                    "internalType": "address",
                    "name": "spender",
                    "type": "address"
                },
                {
                    "internalType": "uint256",
                    "name": "amount",
                    "type": "uint256"
                }
            ],
            "name": "approve",
            "outputs": [
                {
                    "internalType": "bool",
                    "name": "",
                    "type": "bool"
                }
            ],
            "stateMutability": "nonpayable",
            "type": "function"
        },
        {
            "inputs": [
                {
                    "internalType": "address",
                    "name": "account",
                    "type": "address"
                }
            ],
            "name": "balanceOf",
            "outputs": [
                {
                    "internalType": "uint256",
                    "name": "",
                    "type": "uint256"
                }
            ],
            "stateMutability": "view",
            "type": "function"
        },
        {
            "inputs": [
                {
                    "internalType": "uint256",
                    "name": "amount",
                    "type": "uint256"
                }
            ],
            "name": "burn",
            "outputs": [],
            "stateMutability": "nonpayable",
            "type": "function"
        },
        {
            "inputs": [
                {
                    "internalType": "address",
                    "name": "account",
                    "type": "address"
                },
                {
                    "internalType": "uint256",
                    "name": "amount",
                    "type": "uint256"
                }
            ],
            "name": "burnFrom",
            "outputs": [],
            "stateMutability": "nonpayable",
            "type": "function"
        },
        {
            "inputs": [],
            "name": "decimals",
            "outputs": [
                {
                    "internalType": "uint8",
                    "name": "",
                    "type": "uint8"
                }
            ],
            "stateMutability": "view",
            "type": "function"
        },
        {
            "inputs": [
                {
                    "internalType": "address",
                    "name": "spender",
                    "type": "address"
                },
                {
                    "internalType": "uint256",
                    "name": "subtractedValue",
                    "type": "uint256"
                }
            ],
            "name": "decreaseAllowance",
            "outputs": [
                {
                    "internalType": "bool",
                    "name": "",
                    "type": "bool"
                }
            ],
            "stateMutability": "nonpayable",
            "type": "function"
        },
        {
            "inputs": [
                {
                    "internalType": "address",
                    "name": "spender",
                    "type": "address"
                },
                {
                    "internalType": "uint256",
                    "name": "addedValue",
                    "type": "uint256"
                }
            ],
            "name": "increaseAllowance",
            "outputs": [
                {
                    "internalType": "bool",
                    "name": "",
                    "type": "bool"
                }
            ],
            "stateMutability": "nonpayable",
            "type": "function"
        },
        {
            "inputs": [],
            "name": "name",
            "outputs": [
                {
                    "internalType": "string",
                    "name": "",
                    "type": "string"
                }
            ],
            "stateMutability": "view",
            "type": "function"
        },
        {
            "inputs": [],
            "name": "owner",
            "outputs": [
                {
                    "internalType": "address",
                    "name": "",
                    "type": "address"
                }
            ],
            "stateMutability": "view",
            "type": "function"
        },
        {
            "inputs": [],
            "name": "renounceOwnership",
            "outputs": [],
            "stateMutability": "nonpayable",
            "type": "function"
        },
        {
            "inputs": [],
            "name": "symbol",
            "outputs": [
                {
                    "internalType": "string",
                    "name": "",
                    "type": "string"
                }
            ],
            "stateMutability": "view",
            "type": "function"
        },
        {
            "inputs": [],
            "name": "totalSupply",
            "outputs": [
                {
                    "internalType": "uint256",
                    "name": "",
                    "type": "uint256"
                }
            ],
            "stateMutability": "view",
            "type": "function"
        },
        {
            "inputs": [
                {
                    "internalType": "address",
                    "name": "to",
                    "type": "address"
                },
                {
                    "internalType": "uint256",
                    "name": "amount",
                    "type": "uint256"
                }
            ],
            "name": "transfer",
            "outputs": [
                {
                    "internalType": "bool",
                    "name": "",
                    "type": "bool"
                }
            ],
            "stateMutability": "nonpayable",
            "type": "function"
        },
        {
            "inputs": [
                {
                    "internalType": "address",
                    "name": "from",
                    "type": "address"
                },
                {
                    "internalType": "address",
                    "name": "to",
                    "type": "address"
                },
                {
                    "internalType": "uint256",
                    "name": "amount",
                    "type": "uint256"
                }
            ],
            "name": "transferFrom",
            "outputs": [
                {
                    "internalType": "bool",
                    "name": "",
                    "type": "bool"
                }
            ],
            "stateMutability": "nonpayable",
            "type": "function"
        },
        {
            "inputs": [
                {
                    "internalType": "address",
                    "name": "newOwner",
                    "type": "address"
                }
            ],
            "name": "transferOwnership",
            "outputs": [],
            "stateMutability": "nonpayable",
            "type": "function"
        }
    ],
    "bytecode": "0x60806040526a4986f44622f73835e000006006553480156200002057600080fd5b506040516200224538038062002245833981810160405281019062000046919062000527565b6040518060400160405280600881526020017f74726170644172740000000000000000000000000000000000000000000000008152506040518060400160405280600481526020017f54524150000000000000000000000000000000000000000000000000000000008152508160039080519060200190620000ca92919062000460565b508060049080519060200190620000e392919062000460565b50505062000106620000fa6200020f60201b60201c565b6200021760201b60201c565b6200013684600c60646006546200011e919062000678565b6200012a9190620006b0565b620002dd60201b60201c565b6200016683600f60646006546200014e919062000678565b6200015a9190620006b0565b620002dd60201b60201c565b6200019682601960646006546200017e919062000678565b6200018a9190620006b0565b620002dd60201b60201c565b620001c68160286064600654620001ae919062000678565b620001ba9190620006b0565b620002dd60201b60201c565b62000205620001da6200020f60201b60201c565b60086064600654620001ed919062000678565b620001f99190620006b0565b620002dd60201b60201c565b5050505062000855565b600033905090565b6000600560009054906101000a900473ffffffffffffffffffffffffffffffffffffffff16905081600560006101000a81548173ffffffffffffffffffffffffffffffffffffffff021916908373ffffffffffffffffffffffffffffffffffffffff1602179055508173ffffffffffffffffffffffffffffffffffffffff168173ffffffffffffffffffffffffffffffffffffffff167f8be0079c531659141344cd1fd0a4f28419497f9722a3daafe3b4186f6b6457e060405160405180910390a35050565b600073ffffffffffffffffffffffffffffffffffffffff168273ffffffffffffffffffffffffffffffffffffffff16141562000350576040517f08c379a00000000000000000000000000000000000000000000000000000000081526004016200034790620005cb565b60405180910390fd5b62000364600083836200045660201b60201c565b80600260008282546200037891906200061b565b92505081905550806000808473ffffffffffffffffffffffffffffffffffffffff1673ffffffffffffffffffffffffffffffffffffffff1681526020019081526020016000206000828254620003cf91906200061b565b925050819055508173ffffffffffffffffffffffffffffffffffffffff16600073ffffffffffffffffffffffffffffffffffffffff167fddf252ad1be2c89b69c2b068fc378daa952ba7f163c4a11628f55a4df523b3ef83604051620004369190620005ed565b60405180910390a362000452600083836200045b60201b60201c565b5050565b505050565b505050565b8280546200046e906200074f565b90600052602060002090601f016020900481019282620004925760008555620004de565b82601f10620004ad57805160ff1916838001178555620004de565b82800160010185558215620004de579182015b82811115620004dd578251825591602001919060010190620004c0565b5b509050620004ed9190620004f1565b5090565b5b808211156200050c576000816000905550600101620004f2565b5090565b60008151905062000521816200083b565b92915050565b600080600080608085870312156200053e57600080fd5b60006200054e8782880162000510565b9450506020620005618782880162000510565b9350506040620005748782880162000510565b9250506060620005878782880162000510565b91505092959194509250565b6000620005a2601f836200060a565b9150620005af8262000812565b602082019050919050565b620005c58162000745565b82525050565b60006020820190508181036000830152620005e68162000593565b9050919050565b6000602082019050620006046000830184620005ba565b92915050565b600082825260208201905092915050565b6000620006288262000745565b9150620006358362000745565b9250827fffffffffffffffffffffffffffffffffffffffffffffffffffffffffffffffff038211156200066d576200066c62000785565b5b828201905092915050565b6000620006858262000745565b9150620006928362000745565b925082620006a557620006a4620007b4565b5b828204905092915050565b6000620006bd8262000745565b9150620006ca8362000745565b9250817fffffffffffffffffffffffffffffffffffffffffffffffffffffffffffffffff048311821515161562000706576200070562000785565b5b828202905092915050565b60006200071e8262000725565b9050919050565b600073ffffffffffffffffffffffffffffffffffffffff82169050919050565b6000819050919050565b600060028204905060018216806200076857607f821691505b602082108114156200077f576200077e620007e3565b5b50919050565b7f4e487b7100000000000000000000000000000000000000000000000000000000600052601160045260246000fd5b7f4e487b7100000000000000000000000000000000000000000000000000000000600052601260045260246000fd5b7f4e487b7100000000000000000000000000000000000000000000000000000000600052602260045260246000fd5b7f45524332303a206d696e7420746f20746865207a65726f206164647265737300600082015250565b620008468162000711565b81146200085257600080fd5b50565b6119e080620008656000396000f3fe608060405234801561001057600080fd5b50600436106101005760003560e01c8063715018a611610097578063a457c2d711610066578063a457c2d71461029d578063a9059cbb146102cd578063dd62ed3e146102fd578063f2fde38b1461032d57610100565b8063715018a61461023b57806379cc6790146102455780638da5cb5b1461026157806395d89b411461027f57610100565b8063313ce567116100d3578063313ce567146101a157806339509351146101bf57806342966c68146101ef57806370a082311461020b57610100565b806306fdde0314610105578063095ea7b31461012357806318160ddd1461015357806323b872dd14610171575b600080fd5b61010d610349565b60405161011a91906112dc565b60405180910390f35b61013d6004803603810190610138919061104b565b6103db565b60405161014a91906112c1565b60405180910390f35b61015b6103fe565b604051610168919061145e565b60405180910390f35b61018b60048036038101906101869190610ffc565b610408565b60405161019891906112c1565b60405180910390f35b6101a9610437565b6040516101b69190611479565b60405180910390f35b6101d960048036038101906101d4919061104b565b610440565b6040516101e691906112c1565b60405180910390f35b61020960048036038101906102049190611087565b610477565b005b61022560048036038101906102209190610f97565b61048b565b604051610232919061145e565b60405180910390f35b6102436104d3565b005b61025f600480360381019061025a919061104b565b6104e7565b005b610269610507565b60405161027691906112a6565b60405180910390f35b610287610531565b60405161029491906112dc565b60405180910390f35b6102b760048036038101906102b2919061104b565b6105c3565b6040516102c491906112c1565b60405180910390f35b6102e760048036038101906102e2919061104b565b61063a565b6040516102f491906112c1565b60405180910390f35b61031760048036038101906103129190610fc0565b61065d565b604051610324919061145e565b60405180910390f35b61034760048036038101906103429190610f97565b6106e4565b005b606060038054610358906115c2565b80601f0160208091040260200160405190810160405280929190818152602001828054610384906115c2565b80156103d15780601f106103a6576101008083540402835291602001916103d1565b820191906000526020600020905b8154815290600101906020018083116103b457829003601f168201915b5050505050905090565b6000806103e6610768565b90506103f3818585610770565b600191505092915050565b6000600254905090565b600080610413610768565b905061042085828561093b565b61042b8585856109c7565b60019150509392505050565b60006012905090565b60008061044b610768565b905061046c81858561045d858961065d565b61046791906114b0565b610770565b600191505092915050565b610488610482610768565b82610c48565b50565b60008060008373ffffffffffffffffffffffffffffffffffffffff1673ffffffffffffffffffffffffffffffffffffffff168152602001908152602001600020549050919050565b6104db610e1f565b6104e56000610e9d565b565b6104f9826104f3610768565b8361093b565b6105038282610c48565b5050565b6000600560009054906101000a900473ffffffffffffffffffffffffffffffffffffffff16905090565b606060048054610540906115c2565b80601f016020809104026020016040519081016040528092919081815260200182805461056c906115c2565b80156105b95780601f1061058e576101008083540402835291602001916105b9565b820191906000526020600020905b81548152906001019060200180831161059c57829003601f168201915b5050505050905090565b6000806105ce610768565b905060006105dc828661065d565b905083811015610621576040517f08c379a00000000000000000000000000000000000000000000000000000000081526004016106189061143e565b60405180910390fd5b61062e8286868403610770565b60019250505092915050565b600080610645610768565b90506106528185856109c7565b600191505092915050565b6000600160008473ffffffffffffffffffffffffffffffffffffffff1673ffffffffffffffffffffffffffffffffffffffff16815260200190815260200160002060008373ffffffffffffffffffffffffffffffffffffffff1673ffffffffffffffffffffffffffffffffffffffff16815260200190815260200160002054905092915050565b6106ec610e1f565b600073ffffffffffffffffffffffffffffffffffffffff168173ffffffffffffffffffffffffffffffffffffffff16141561075c576040517f08c379a00000000000000000000000000000000000000000000000000000000081526004016107539061133e565b60405180910390fd5b61076581610e9d565b50565b600033905090565b600073ffffffffffffffffffffffffffffffffffffffff168373ffffffffffffffffffffffffffffffffffffffff1614156107e0576040517f08c379a00000000000000000000000000000000000000000000000000000000081526004016107d79061141e565b60405180910390fd5b600073ffffffffffffffffffffffffffffffffffffffff168273ffffffffffffffffffffffffffffffffffffffff161415610850576040517f08c379a00000000000000000000000000000000000000000000000000000000081526004016108479061135e565b60405180910390fd5b80600160008573ffffffffffffffffffffffffffffffffffffffff1673ffffffffffffffffffffffffffffffffffffffff16815260200190815260200160002060008473ffffffffffffffffffffffffffffffffffffffff1673ffffffffffffffffffffffffffffffffffffffff168152602001908152602001600020819055508173ffffffffffffffffffffffffffffffffffffffff168373ffffffffffffffffffffffffffffffffffffffff167f8c5be1e5ebec7d5bd14f71427d1e84f3dd0314c0f7b2291e5b200ac8c7c3b9258360405161092e919061145e565b60405180910390a3505050565b6000610947848461065d565b90507fffffffffffffffffffffffffffffffffffffffffffffffffffffffffffffffff81146109c157818110156109b3576040517f08c379a00000000000000000000000000000000000000000000000000000000081526004016109aa9061137e565b60405180910390fd5b6109c08484848403610770565b5b50505050565b600073ffffffffffffffffffffffffffffffffffffffff168373ffffffffffffffffffffffffffffffffffffffff161415610a37576040517f08c379a0000000000000000000000000000000000000000000000000000000008152600401610a2e906113fe565b60405180910390fd5b600073ffffffffffffffffffffffffffffffffffffffff168273ffffffffffffffffffffffffffffffffffffffff161415610aa7576040517f08c379a0000000000000000000000000000000000000000000000000000000008152600401610a9e906112fe565b60405180910390fd5b610ab2838383610f63565b60008060008573ffffffffffffffffffffffffffffffffffffffff1673ffffffffffffffffffffffffffffffffffffffff16815260200190815260200160002054905081811015610b38576040517f08c379a0000000000000000000000000000000000000000000000000000000008152600401610b2f9061139e565b60405180910390fd5b8181036000808673ffffffffffffffffffffffffffffffffffffffff1673ffffffffffffffffffffffffffffffffffffffff16815260200190815260200160002081905550816000808573ffffffffffffffffffffffffffffffffffffffff1673ffffffffffffffffffffffffffffffffffffffff1681526020019081526020016000206000828254610bcb91906114b0565b925050819055508273ffffffffffffffffffffffffffffffffffffffff168473ffffffffffffffffffffffffffffffffffffffff167fddf252ad1be2c89b69c2b068fc378daa952ba7f163c4a11628f55a4df523b3ef84604051610c2f919061145e565b60405180910390a3610c42848484610f68565b50505050565b600073ffffffffffffffffffffffffffffffffffffffff168273ffffffffffffffffffffffffffffffffffffffff161415610cb8576040517f08c379a0000000000000000000000000000000000000000000000000000000008152600401610caf906113de565b60405180910390fd5b610cc482600083610f63565b60008060008473ffffffffffffffffffffffffffffffffffffffff1673ffffffffffffffffffffffffffffffffffffffff16815260200190815260200160002054905081811015610d4a576040517f08c379a0000000000000000000000000000000000000000000000000000000008152600401610d419061131e565b60405180910390fd5b8181036000808573ffffffffffffffffffffffffffffffffffffffff1673ffffffffffffffffffffffffffffffffffffffff168152602001908152602001600020819055508160026000828254610da19190611506565b92505081905550600073ffffffffffffffffffffffffffffffffffffffff168373ffffffffffffffffffffffffffffffffffffffff167fddf252ad1be2c89b69c2b068fc378daa952ba7f163c4a11628f55a4df523b3ef84604051610e06919061145e565b60405180910390a3610e1a83600084610f68565b505050565b610e27610768565b73ffffffffffffffffffffffffffffffffffffffff16610e45610507565b73ffffffffffffffffffffffffffffffffffffffff1614610e9b576040517f08c379a0000000000000000000000000000000000000000000000000000000008152600401610e92906113be565b60405180910390fd5b565b6000600560009054906101000a900473ffffffffffffffffffffffffffffffffffffffff16905081600560006101000a81548173ffffffffffffffffffffffffffffffffffffffff021916908373ffffffffffffffffffffffffffffffffffffffff1602179055508173ffffffffffffffffffffffffffffffffffffffff168173ffffffffffffffffffffffffffffffffffffffff167f8be0079c531659141344cd1fd0a4f28419497f9722a3daafe3b4186f6b6457e060405160405180910390a35050565b505050565b505050565b600081359050610f7c8161197c565b92915050565b600081359050610f9181611993565b92915050565b600060208284031215610fa957600080fd5b6000610fb784828501610f6d565b91505092915050565b60008060408385031215610fd357600080fd5b6000610fe185828601610f6d565b9250506020610ff285828601610f6d565b9150509250929050565b60008060006060848603121561101157600080fd5b600061101f86828701610f6d565b935050602061103086828701610f6d565b925050604061104186828701610f82565b9150509250925092565b6000806040838503121561105e57600080fd5b600061106c85828601610f6d565b925050602061107d85828601610f82565b9150509250929050565b60006020828403121561109957600080fd5b60006110a784828501610f82565b91505092915050565b6110b98161153a565b82525050565b6110c88161154c565b82525050565b60006110d982611494565b6110e3818561149f565b93506110f381856020860161158f565b6110fc81611652565b840191505092915050565b600061111460238361149f565b915061111f82611663565b604082019050919050565b600061113760228361149f565b9150611142826116b2565b604082019050919050565b600061115a60268361149f565b915061116582611701565b604082019050919050565b600061117d60228361149f565b915061118882611750565b604082019050919050565b60006111a0601d8361149f565b91506111ab8261179f565b602082019050919050565b60006111c360268361149f565b91506111ce826117c8565b604082019050919050565b60006111e660208361149f565b91506111f182611817565b602082019050919050565b600061120960218361149f565b915061121482611840565b604082019050919050565b600061122c60258361149f565b91506112378261188f565b604082019050919050565b600061124f60248361149f565b915061125a826118de565b604082019050919050565b600061127260258361149f565b915061127d8261192d565b604082019050919050565b61129181611578565b82525050565b6112a081611582565b82525050565b60006020820190506112bb60008301846110b0565b92915050565b60006020820190506112d660008301846110bf565b92915050565b600060208201905081810360008301526112f681846110ce565b905092915050565b6000602082019050818103600083015261131781611107565b9050919050565b600060208201905081810360008301526113378161112a565b9050919050565b600060208201905081810360008301526113578161114d565b9050919050565b6000602082019050818103600083015261137781611170565b9050919050565b6000602082019050818103600083015261139781611193565b9050919050565b600060208201905081810360008301526113b7816111b6565b9050919050565b600060208201905081810360008301526113d7816111d9565b9050919050565b600060208201905081810360008301526113f7816111fc565b9050919050565b600060208201905081810360008301526114178161121f565b9050919050565b6000602082019050818103600083015261143781611242565b9050919050565b6000602082019050818103600083015261145781611265565b9050919050565b60006020820190506114736000830184611288565b92915050565b600060208201905061148e6000830184611297565b92915050565b600081519050919050565b600082825260208201905092915050565b60006114bb82611578565b91506114c683611578565b9250827fffffffffffffffffffffffffffffffffffffffffffffffffffffffffffffffff038211156114fb576114fa6115f4565b5b828201905092915050565b600061151182611578565b915061151c83611578565b92508282101561152f5761152e6115f4565b5b828203905092915050565b600061154582611558565b9050919050565b60008115159050919050565b600073ffffffffffffffffffffffffffffffffffffffff82169050919050565b6000819050919050565b600060ff82169050919050565b60005b838110156115ad578082015181840152602081019050611592565b838111156115bc576000848401525b50505050565b600060028204905060018216806115da57607f821691505b602082108114156115ee576115ed611623565b5b50919050565b7f4e487b7100000000000000000000000000000000000000000000000000000000600052601160045260246000fd5b7f4e487b7100000000000000000000000000000000000000000000000000000000600052602260045260246000fd5b6000601f19601f8301169050919050565b7f45524332303a207472616e7366657220746f20746865207a65726f206164647260008201527f6573730000000000000000000000000000000000000000000000000000000000602082015250565b7f45524332303a206275726e20616d6f756e7420657863656564732062616c616e60008201527f6365000000000000000000000000000000000000000000000000000000000000602082015250565b7f4f776e61626c653a206e6577206f776e657220697320746865207a65726f206160008201527f6464726573730000000000000000000000000000000000000000000000000000602082015250565b7f45524332303a20617070726f766520746f20746865207a65726f20616464726560008201527f7373000000000000000000000000000000000000000000000000000000000000602082015250565b7f45524332303a20696e73756666696369656e7420616c6c6f77616e6365000000600082015250565b7f45524332303a207472616e7366657220616d6f756e742065786365656473206260008201527f616c616e63650000000000000000000000000000000000000000000000000000602082015250565b7f4f776e61626c653a2063616c6c6572206973206e6f7420746865206f776e6572600082015250565b7f45524332303a206275726e2066726f6d20746865207a65726f2061646472657360008201527f7300000000000000000000000000000000000000000000000000000000000000602082015250565b7f45524332303a207472616e736665722066726f6d20746865207a65726f20616460008201527f6472657373000000000000000000000000000000000000000000000000000000602082015250565b7f45524332303a20617070726f76652066726f6d20746865207a65726f2061646460008201527f7265737300000000000000000000000000000000000000000000000000000000602082015250565b7f45524332303a2064656372656173656420616c6c6f77616e63652062656c6f7760008201527f207a65726f000000000000000000000000000000000000000000000000000000602082015250565b6119858161153a565b811461199057600080fd5b50565b61199c81611578565b81146119a757600080fd5b5056fea2646970667358221220f0d549d4761ab8b790ed6913df95307d61f52a2cb44ce5b77bceb39775104afa64736f6c63430008040033",
    "linkReferences": {},
    "deployedLinkReferences": {}
}